:020000040000FA
:06000000E1EF03F0120025
:0600080004EF04F01200F9
:060018000CEF04F01200E1
:06002A000100DA070000EE
:080030007E0000000200000048
:080038000001776B1E0E716ED2
:100040000401400E096F200E0A6F040E0B6F880E1C
:10005000086F0401200E0E6F040E0F6F400E0C6F20
:100060001200550EA76EAA0EA76EA68212000401FA
:10007000226B010E236F12000001756B65D90AE235
:1000800070D90800F5CF76F0000157D976C0EFFFA0
:10009000752BF4D7F86A1200F00E04012217840EB3
:1000A000A66E0001756B50D90AE253D90F0E0001FC
:1000B00075150F0801E1D5DF0001752BF4D712008B
:1000C000940EA66E0001756B3FD911E27551006E5A
:1000D000016A060ED89000360136E804FBE1026A98
:1000E00001BE02681BD9BDDF0001752BEDD7F86A90
:1000F0001200A66A0001756B27D90BE20401225198
:1001000000017525A96EA68018D9A8CFEFFF752B21
:10011000F3D712000001756B17D910E204012251C8
:1001200000017525A96E09D9EF50A86E040EA66EC0
:1001300098DFA6B2FED70001752BEED71200C40ED1
:10014000A66E0001756B00D905E203D98ADF0001B4
:10015000752BF9D7F86A1200A0D8060E00017A5D57
:1001600003E36D50020B01E097D00001770511E128
:1001700004010CBF0DD00401400E096F400E0401B4
:1001800008170401087D880E040108130001776B2D
:1001900083D0040108BF80D00001756B0401205199
:1001A000320A45E0CD0A34E0F80A2DE0020A26E0E2
:1001B000010A1FE0070A18E0010A11E0030A0AE039
:1001C000070A08E0060A01E056D051DF0001040EDC
:1001D000756F52D051DF050E000175274DD05CDFE1
:1001E0000001010E756F48D06BDF0001010E756FC5
:1001F00043D07FDF050E000175273ED08BDF000165
:10020000010E756F39D09BDF0001010E756F34D080
:100210006D960001786B796B00017807000E795BB1
:1002200000017851791101E0F7D7FF0025D0030EC6
:100230000401215D0DE104012251010BF36EF3462F
:10024000F346FB0E8C14F3108C6E0001010E756FDB
:10025000040E0401215D0EE104012251010BF36E35
:10026000F346F346F346F70E8C14F3108C6E000140
:10027000010E756F01D000D00001010E776F0001F3
:1002800075510AE075C00DF4400E04010C1704010D
:100290000C7D880E04010C13120000017E517F11A9
:1002A00004E1200E7E6F4E0E7F6F7E07000E7F5B97
:1002B0006DA208D07E517F1130E18C7C8C50400BB8
:1002C00013E128D000017A5102E18C9C23D07A05F9
:1002D00002E18C8C09D0020E7A5D02E18C8C1AD07E
:1002E000030E7A5D03E18C9C8C821200050E7A5D10
:1002F00006E100017E517F1110E18C7C0BD0060ECF
:100300007A5D0BE100017E517F1107E18C7C8C50FE
:10031000400B02E08C9212008C82120004012251E8
:100320000024F36E23510120F46E24510220F86E54
:10033000F4CFF7FFF3CFF6FF12007551EA6A250FED
:10034000E96E040EEA221200040121510001755DDC
:100350001200F3DFEFCF03F004D803C0F5FF0C0069
:0E036000120075C000F0016A026A8EEF01F013
:02036E006C50D1
:1003700002E0000E01D0010E00090BE00401005163
:100380003C0BE842E8420D0802E1D2EF01F0DBEF5E
:1003900001F06C5002E0000E01D0010E040901E0F2
:1003A00019D812000001606B616B666B676BA6EC7D
:1003B00002F05DEF02F0020E0001605D09E15CD821
:1003C000040100BD02D0C80E01D0880E006F1200DB
:1003D00096EF02F0040E00017A5D09E112C46EFF8F
:1003E0006E50000802E2050E01D0030E7A6F000184
:1003F000600509E10AD8040104BD02D0C80E01D08D
:10040000880E046F120096EF02F00001080E665D80
:10041000000E675903E266C069F002D0080E696FEA
:1004200069C005F46951006E016A0050665F0150B1
:10043000675B180E646F040E656F69511CE0000164
:100440007BA307D062C0F6FF63C0F7FF0800F5503A
:1004500005D062C0E9FF63C0EAFFEF5064C0E9FF66
:1004600065C0EAFFEF6E0001622B000E6323642B70
:1004700065236907E2D7120001C46AF000016A51DE
:100480006625666F000E6721676F180E626F040E97
:10049000636F6A5111E062C0E9FF63C0EAFFEF5089
:1004A00064C0E9FF65C0EAFFEF6E642B000E6523B0
:1004B000622B63236A07EDD712000001615105E149
:1004C0003DD8840E006F04011DD0040110AF1CD074
:1004D000000166510401165D0001675104011759BE
:1004E00004E216C466F017C467F08FDF0001010E46
:1004F000606F24D8800E006F0401180E066F040E82
:10050000076FC80E046F10D00001020E606F040167
:10051000056BC80E046F0401080E016F180E026F00
:10052000040E036FC80E006F6D9812000001606B1F
:1005300005D8880E006F0401046B12000401080E38
:0C054000016F100E026F040E036F12001A
:04054C000401105145
:10055000600BE842E842E842E842E842000901E074
:1005600012001151080A39E0010A35E00F0A0AE0C9
:10057000030A01E012000001010E616F0001040E88
:100580007A6F12000001010E616F0401130507E18B
:100590000001600E626F070E636F120E13D0020E21
:1005A000135D07E10001720E626F070E636F200E8C
:1005B00009D0030E135D0AE10001920E626F070E6F
:1005C000636F040E0001666F676B02D00001616B00
:1005D00000017B831200FBEF02F00001010E616F4E
:1005E00000017C0E626F000E636F00017B930001BF
:1005F000010E666F12000001010E616F12C47CF0E3
:100600000401125104E10001050E7A6F120000018D
:08061000060E7A6F1CEF00F0EA
:08061800080E6D6E6DBAFED7ED
:10062000686A110E696E0001020E7A6F120068503E
:10063000040B06E06950040B03E06D926994689422
:100640006850010B04E06950010B01E027D86850A5
:10065000100B09E06950100B06E0698468986D8200
:10066000A08A0300A19A6850200B09E06950200B72
:1006700006E070A003D096EC02F07090689A030E2A
:1006800000017A5D01E209D06850080B06E069506C
:10069000080B03E0B7EC01F068961200686A7B0E65
:1006A000696E6E6A160E706E68A602D06896FCD7E8
:1006B0006D9896EC02F000017C6B0001030E7A6FDE
:0206C000120026
:0E06C2002A0EF66E000EF76E000EF86E0001A6
:1006D0000900F550706F0900F550716F03E1706704
:1006E00001D03DD00900F5506B6F0900F5506C6FDB
:1006F0000900F5506D6F09000900F550E96E090019
:10070000F550EA6E090009000900F5506E6F090006
:10071000F5506F6F09000900F6CF72F0F7CF73F054
:10072000F8CF74F06BC0F6FF6CC0F7FF6DC0F8FF38
:1007300000016E5302E16F5307E00900F550EE6EC1
:100740006E07F8E26F07F9D772C0F6FF73C0F7FFC4
:1007500074C0F8FF00017007000E715BBFD7120074
:100760001201000200000008D8040B000000000085
:10077000000109022000010100803209040000028A
:10078000000000000705010240000007058102404B
:060790000000040309044F
:0A079600C1CF80F00F0EC11281AA3E
:1007A00004D080C0C1FF00EF04F08C9C959C140E17
:1007B0006F6E0CEC03F017EC03F0ACEC00F0FBD721
:0207C000120025
:0E07C20013EE00F023EE00F0F86A059C61ECE7
:0A07D00003F0CBEC03F0FDD712009C
:0207DA0000001D
:00000001FF
